{
  "_format": "hh-sol-artifact-1",
  "contractName": "OpenGrant",
  "sourceName": "contracts/OpenGrant.sol",
  "abi": [
    {
      "inputs": [
        {
          "internalType": "uint256",
          "name": "_applicationStartTime",
          "type": "uint256"
        },
        {
          "internalType": "uint256",
          "name": "_applicationEndTime",
          "type": "uint256"
        }
      ],
      "stateMutability": "payable",
      "type": "constructor"
    },
    {
      "anonymous": false,
      "inputs": [
        {
          "indexed": true,
          "internalType": "address",
          "name": "applicant",
          "type": "address"
        },
        {
          "indexed": false,
          "internalType": "string",
          "name": "studentName",
          "type": "string"
        },
        {
          "indexed": false,
          "internalType": "uint256",
          "name": "amountTransferred",
          "type": "uint256"
        }
      ],
      "name": "ApplicationApproved",
      "type": "event"
    },
    {
      "anonymous": false,
      "inputs": [
        {
          "indexed": true,
          "internalType": "address",
          "name": "applicant",
          "type": "address"
        },
        {
          "indexed": false,
          "internalType": "string",
          "name": "studentName",
          "type": "string"
        },
        {
          "indexed": false,
          "internalType": "uint256",
          "name": "percentage",
          "type": "uint256"
        }
      ],
      "name": "ApplicationSubmitted",
      "type": "event"
    },
    {
      "anonymous": false,
      "inputs": [
        {
          "indexed": false,
          "internalType": "uint256",
          "name": "startTime",
          "type": "uint256"
        },
        {
          "indexed": false,
          "internalType": "uint256",
          "name": "endTime",
          "type": "uint256"
        }
      ],
      "name": "ScholarshipDetailsDefined",
      "type": "event"
    },
    {
      "inputs": [],
      "name": "admin",
      "outputs": [
        {
          "internalType": "address",
          "name": "",
          "type": "address"
        }
      ],
      "stateMutability": "view",
      "type": "function"
    },
    {
      "inputs": [
        {
          "internalType": "uint256",
          "name": "",
          "type": "uint256"
        }
      ],
      "name": "applicants",
      "outputs": [
        {
          "internalType": "address",
          "name": "",
          "type": "address"
        }
      ],
      "stateMutability": "view",
      "type": "function"
    },
    {
      "inputs": [],
      "name": "applicationEndTime",
      "outputs": [
        {
          "internalType": "uint256",
          "name": "",
          "type": "uint256"
        }
      ],
      "stateMutability": "view",
      "type": "function"
    },
    {
      "inputs": [],
      "name": "applicationStartTime",
      "outputs": [
        {
          "internalType": "uint256",
          "name": "",
          "type": "uint256"
        }
      ],
      "stateMutability": "view",
      "type": "function"
    },
    {
      "inputs": [
        {
          "internalType": "address",
          "name": "",
          "type": "address"
        }
      ],
      "name": "applications",
      "outputs": [
        {
          "internalType": "string",
          "name": "studentName",
          "type": "string"
        },
        {
          "internalType": "uint256",
          "name": "studentAge",
          "type": "uint256"
        },
        {
          "internalType": "string",
          "name": "studentQualification",
          "type": "string"
        },
        {
          "internalType": "uint256",
          "name": "studentPassYear",
          "type": "uint256"
        },
        {
          "internalType": "string",
          "name": "grade",
          "type": "string"
        },
        {
          "internalType": "uint256",
          "name": "percentage",
          "type": "uint256"
        },
        {
          "internalType": "bool",
          "name": "isSubmitted",
          "type": "bool"
        },
        {
          "internalType": "bool",
          "name": "isApproved",
          "type": "bool"
        },
        {
          "internalType": "string",
          "name": "documentImageURL",
          "type": "string"
        }
      ],
      "stateMutability": "view",
      "type": "function"
    },
    {
      "inputs": [
        {
          "internalType": "address",
          "name": "applicant",
          "type": "address"
        }
      ],
      "name": "approveApplication",
      "outputs": [],
      "stateMutability": "nonpayable",
      "type": "function"
    },
    {
      "inputs": [
        {
          "internalType": "string",
          "name": "_studentName",
          "type": "string"
        },
        {
          "internalType": "uint256",
          "name": "_studentAge",
          "type": "uint256"
        },
        {
          "internalType": "string",
          "name": "_studentQualification",
          "type": "string"
        },
        {
          "internalType": "uint256",
          "name": "_studentPassYear",
          "type": "uint256"
        },
        {
          "internalType": "string",
          "name": "_grade",
          "type": "string"
        },
        {
          "internalType": "uint256",
          "name": "_percentage",
          "type": "uint256"
        },
        {
          "internalType": "string",
          "name": "_documentImageURL",
          "type": "string"
        }
      ],
      "name": "submitApplication",
      "outputs": [],
      "stateMutability": "nonpayable",
      "type": "function"
    },
    {
      "inputs": [],
      "name": "viewAllApplications",
      "outputs": [
        {
          "components": [
            {
              "internalType": "string",
              "name": "studentName",
              "type": "string"
            },
            {
              "internalType": "uint256",
              "name": "studentAge",
              "type": "uint256"
            },
            {
              "internalType": "string",
              "name": "studentQualification",
              "type": "string"
            },
            {
              "internalType": "uint256",
              "name": "studentPassYear",
              "type": "uint256"
            },
            {
              "internalType": "string",
              "name": "grade",
              "type": "string"
            },
            {
              "internalType": "uint256",
              "name": "percentage",
              "type": "uint256"
            },
            {
              "internalType": "bool",
              "name": "isSubmitted",
              "type": "bool"
            },
            {
              "internalType": "bool",
              "name": "isApproved",
              "type": "bool"
            },
            {
              "internalType": "string",
              "name": "documentImageURL",
              "type": "string"
            }
          ],
          "internalType": "struct OpenGrant.Application[]",
          "name": "",
          "type": "tuple[]"
        }
      ],
      "stateMutability": "view",
      "type": "function"
    },
    {
      "inputs": [
        {
          "internalType": "address",
          "name": "applicant",
          "type": "address"
        }
      ],
      "name": "viewApplication",
      "outputs": [
        {
          "components": [
            {
              "internalType": "string",
              "name": "studentName",
              "type": "string"
            },
            {
              "internalType": "uint256",
              "name": "studentAge",
              "type": "uint256"
            },
            {
              "internalType": "string",
              "name": "studentQualification",
              "type": "string"
            },
            {
              "internalType": "uint256",
              "name": "studentPassYear",
              "type": "uint256"
            },
            {
              "internalType": "string",
              "name": "grade",
              "type": "string"
            },
            {
              "internalType": "uint256",
              "name": "percentage",
              "type": "uint256"
            },
            {
              "internalType": "bool",
              "name": "isSubmitted",
              "type": "bool"
            },
            {
              "internalType": "bool",
              "name": "isApproved",
              "type": "bool"
            },
            {
              "internalType": "string",
              "name": "documentImageURL",
              "type": "string"
            }
          ],
          "internalType": "struct OpenGrant.Application",
          "name": "",
          "type": "tuple"
        }
      ],
      "stateMutability": "view",
      "type": "function"
    },
    {
      "stateMutability": "payable",
      "type": "receive"
    }
  ],
  "bytecode": "0x60806040526040516200293e3803806200293e83398181016040528101906200002991906200018e565b8082106200006e576040517f08c379a000000000000000000000000000000000000000000000000000000000815260040162000065906200025c565b60405180910390fd5b69010f0cf064dd592000003414620000bd576040517f08c379a0000000000000000000000000000000000000000000000000000000008152600401620000b490620002f4565b60405180910390fd5b336000806101000a81548173ffffffffffffffffffffffffffffffffffffffff021916908373ffffffffffffffffffffffffffffffffffffffff16021790555081600181905550806002819055507fcc0be6105f626732ae7302cb0fb03353c41f0f22040663694ce197fd0175877582826040516200013e92919062000327565b60405180910390a1505062000354565b600080fd5b6000819050919050565b620001688162000153565b81146200017457600080fd5b50565b60008151905062000188816200015d565b92915050565b60008060408385031215620001a857620001a76200014e565b5b6000620001b88582860162000177565b9250506020620001cb8582860162000177565b9150509250929050565b600082825260208201905092915050565b7f53746172742074696d65206d757374206265206265666f726520656e6420746960008201527f6d65000000000000000000000000000000000000000000000000000000000000602082015250565b600062000244602283620001d5565b91506200025182620001e6565b604082019050919050565b60006020820190508181036000830152620002778162000235565b9050919050565b7f4d7573742073656e642065786163746c7920353030302045544820746f20696e60008201527f697469616c697a652074686520636f6e74726163742e00000000000000000000602082015250565b6000620002dc603683620001d5565b9150620002e9826200027e565b604082019050919050565b600060208201905081810360008301526200030f81620002cd565b9050919050565b620003218162000153565b82525050565b60006040820190506200033e600083018562000316565b6200034d602083018462000316565b9392505050565b6125da80620003646000396000f3fe60806040526004361061008a5760003560e01c80637c3bf42d116100595780637c3bf42d14610164578063c17b9b95146101a9578063dfd78adc146101d4578063e3ae4d0a146101ff578063f851a4401461022857610091565b80634e1937ab146100965780636030de29146100c157806363de5323146100ea57806376eada911461012757610091565b3661009157005b600080fd5b3480156100a257600080fd5b506100ab610253565b6040516100b89190611426565b60405180910390f35b3480156100cd57600080fd5b506100e860048036038101906100e391906115c7565b610259565b005b3480156100f657600080fd5b50610111600480360381019061010c91906116d9565b6106c8565b60405161011e9190611747565b60405180910390f35b34801561013357600080fd5b5061014e6004803603810190610149919061178e565b610707565b60405161015b919061193e565b60405180910390f35b34801561017057600080fd5b5061018b6004803603810190610186919061178e565b6109fd565b6040516101a0999897969594939291906119b9565b60405180910390f35b3480156101b557600080fd5b506101be610c85565b6040516101cb9190611426565b60405180910390f35b3480156101e057600080fd5b506101e9610c8b565b6040516101f69190611bfe565b60405180910390f35b34801561020b57600080fd5b506102266004803603810190610221919061178e565b611058565b005b34801561023457600080fd5b5061023d611399565b60405161024a9190611747565b60405180910390f35b60025481565b60015442101561029e576040517f08c379a000000000000000000000000000000000000000000000000000000000815260040161029590611c92565b60405180910390fd5b6002544211156102e3576040517f08c379a00000000000000000000000000000000000000000000000000000000081526004016102da90611cfe565b60405180910390fd5b600360003373ffffffffffffffffffffffffffffffffffffffff1673ffffffffffffffffffffffffffffffffffffffff16815260200190815260200160002060060160009054906101000a900460ff1615610373576040517f08c379a000000000000000000000000000000000000000000000000000000000815260040161036a90611d90565b60405180910390fd5b60508210156103b7576040517f08c379a00000000000000000000000000000000000000000000000000000000081526004016103ae90611dfc565b60405180910390fd5b6107e884146103fb576040517f08c379a00000000000000000000000000000000000000000000000000000000081526004016103f290611e68565b60405180910390fd5b6040518060400160405280600381526020017f4d53630000000000000000000000000000000000000000000000000000000000815250805190602001208580519060200120148061048e57506040518060400160405280600381526020017f4d43410000000000000000000000000000000000000000000000000000000000815250805190602001208580519060200120145b6104cd576040517f08c379a00000000000000000000000000000000000000000000000000000000081526004016104c490611efa565b60405180910390fd5b60405180610120016040528088815260200187815260200186815260200185815260200184815260200183815260200160011515815260200160001515815260200182815250600360003373ffffffffffffffffffffffffffffffffffffffff1673ffffffffffffffffffffffffffffffffffffffff16815260200190815260200160002060008201518160000190816105679190612126565b506020820151816001015560408201518160020190816105879190612126565b506060820151816003015560808201518160040190816105a79190612126565b5060a0820151816005015560c08201518160060160006101000a81548160ff02191690831515021790555060e08201518160060160016101000a81548160ff0219169083151502179055506101008201518160070190816106089190612126565b509050506004339080600181540180825580915050600190039060005260206000200160009091909190916101000a81548173ffffffffffffffffffffffffffffffffffffffff021916908373ffffffffffffffffffffffffffffffffffffffff1602179055503373ffffffffffffffffffffffffffffffffffffffff167fca2fbca3c2f0cd5ce3f2f32ca15c959b33e44a937c9c423a2ef380030648bac288846040516106b79291906121f8565b60405180910390a250505050505050565b600481815481106106d857600080fd5b906000526020600020016000915054906101000a900473ffffffffffffffffffffffffffffffffffffffff1681565b61070f6113bd565b600360008373ffffffffffffffffffffffffffffffffffffffff1673ffffffffffffffffffffffffffffffffffffffff1681526020019081526020016000206040518061012001604052908160008201805461076a90611f49565b80601f016020809104026020016040519081016040528092919081815260200182805461079690611f49565b80156107e35780601f106107b8576101008083540402835291602001916107e3565b820191906000526020600020905b8154815290600101906020018083116107c657829003601f168201915b505050505081526020016001820154815260200160028201805461080690611f49565b80601f016020809104026020016040519081016040528092919081815260200182805461083290611f49565b801561087f5780601f106108545761010080835404028352916020019161087f565b820191906000526020600020905b81548152906001019060200180831161086257829003601f168201915b50505050508152602001600382015481526020016004820180546108a290611f49565b80601f01602080910402602001604051908101604052809291908181526020018280546108ce90611f49565b801561091b5780601f106108f05761010080835404028352916020019161091b565b820191906000526020600020905b8154815290600101906020018083116108fe57829003601f168201915b50505050508152602001600582015481526020016006820160009054906101000a900460ff161515151581526020016006820160019054906101000a900460ff1615151515815260200160078201805461097490611f49565b80601f01602080910402602001604051908101604052809291908181526020018280546109a090611f49565b80156109ed5780601f106109c2576101008083540402835291602001916109ed565b820191906000526020600020905b8154815290600101906020018083116109d057829003601f168201915b5050505050815250509050919050565b6003602052806000526040600020600091509050806000018054610a2090611f49565b80601f0160208091040260200160405190810160405280929190818152602001828054610a4c90611f49565b8015610a995780601f10610a6e57610100808354040283529160200191610a99565b820191906000526020600020905b815481529060010190602001808311610a7c57829003601f168201915b505050505090806001015490806002018054610ab490611f49565b80601f0160208091040260200160405190810160405280929190818152602001828054610ae090611f49565b8015610b2d5780601f10610b0257610100808354040283529160200191610b2d565b820191906000526020600020905b815481529060010190602001808311610b1057829003601f168201915b505050505090806003015490806004018054610b4890611f49565b80601f0160208091040260200160405190810160405280929190818152602001828054610b7490611f49565b8015610bc15780601f10610b9657610100808354040283529160200191610bc1565b820191906000526020600020905b815481529060010190602001808311610ba457829003601f168201915b5050505050908060050154908060060160009054906101000a900460ff16908060060160019054906101000a900460ff1690806007018054610c0290611f49565b80601f0160208091040260200160405190810160405280929190818152602001828054610c2e90611f49565b8015610c7b5780601f10610c5057610100808354040283529160200191610c7b565b820191906000526020600020905b815481529060010190602001808311610c5e57829003601f168201915b5050505050905089565b60015481565b6060600060048054905067ffffffffffffffff811115610cae57610cad611470565b5b604051908082528060200260200182016040528015610ce757816020015b610cd46113bd565b815260200190600190039081610ccc5790505b50905060005b600480549050811015611050576003600060048381548110610d1257610d11612228565b5b9060005260206000200160009054906101000a900473ffffffffffffffffffffffffffffffffffffffff1673ffffffffffffffffffffffffffffffffffffffff1673ffffffffffffffffffffffffffffffffffffffff16815260200190815260200160002060405180610120016040529081600082018054610d9390611f49565b80601f0160208091040260200160405190810160405280929190818152602001828054610dbf90611f49565b8015610e0c5780601f10610de157610100808354040283529160200191610e0c565b820191906000526020600020905b815481529060010190602001808311610def57829003601f168201915b5050505050815260200160018201548152602001600282018054610e2f90611f49565b80601f0160208091040260200160405190810160405280929190818152602001828054610e5b90611f49565b8015610ea85780601f10610e7d57610100808354040283529160200191610ea8565b820191906000526020600020905b815481529060010190602001808311610e8b57829003601f168201915b5050505050815260200160038201548152602001600482018054610ecb90611f49565b80601f0160208091040260200160405190810160405280929190818152602001828054610ef790611f49565b8015610f445780601f10610f1957610100808354040283529160200191610f44565b820191906000526020600020905b815481529060010190602001808311610f2757829003601f168201915b50505050508152602001600582015481526020016006820160009054906101000a900460ff161515151581526020016006820160019054906101000a900460ff16151515158152602001600782018054610f9d90611f49565b80601f0160208091040260200160405190810160405280929190818152602001828054610fc990611f49565b80156110165780601f10610feb57610100808354040283529160200191611016565b820191906000526020600020905b815481529060010190602001808311610ff957829003601f168201915b50505050508152505082828151811061103257611031612228565b5b6020026020010181905250808061104890612286565b915050610ced565b508091505090565b60008054906101000a900473ffffffffffffffffffffffffffffffffffffffff1673ffffffffffffffffffffffffffffffffffffffff163373ffffffffffffffffffffffffffffffffffffffff16146110e6576040517f08c379a00000000000000000000000000000000000000000000000000000000081526004016110dd90612340565b60405180910390fd5b600360008273ffffffffffffffffffffffffffffffffffffffff1673ffffffffffffffffffffffffffffffffffffffff16815260200190815260200160002060060160009054906101000a900460ff16611175576040517f08c379a000000000000000000000000000000000000000000000000000000000815260040161116c906123d2565b60405180910390fd5b600360008273ffffffffffffffffffffffffffffffffffffffff1673ffffffffffffffffffffffffffffffffffffffff16815260200190815260200160002060060160019054906101000a900460ff1615611205576040517f08c379a00000000000000000000000000000000000000000000000000000000081526004016111fc9061243e565b60405180910390fd5b68056bc75e2d63100000471015611251576040517f08c379a0000000000000000000000000000000000000000000000000000000008152600401611248906124d0565b60405180910390fd5b6001600360008373ffffffffffffffffffffffffffffffffffffffff1673ffffffffffffffffffffffffffffffffffffffff16815260200190815260200160002060060160016101000a81548160ff0219169083151502179055508073ffffffffffffffffffffffffffffffffffffffff166108fc68056bc75e2d631000009081150290604051600060405180830381858888f193505050501580156112fb573d6000803e3d6000fd5b508073ffffffffffffffffffffffffffffffffffffffff167fae9391ac7db16efbae8c3b8d3d34bc72a53feeb4260b7a7dde3216ac511dbaa8600360008473ffffffffffffffffffffffffffffffffffffffff1673ffffffffffffffffffffffffffffffffffffffff16815260200190815260200160002060000168056bc75e2d6310000060405161138e929190612574565b60405180910390a250565b60008054906101000a900473ffffffffffffffffffffffffffffffffffffffff1681565b604051806101200160405280606081526020016000815260200160608152602001600081526020016060815260200160008152602001600015158152602001600015158152602001606081525090565b6000819050919050565b6114208161140d565b82525050565b600060208201905061143b6000830184611417565b92915050565b6000604051905090565b600080fd5b600080fd5b600080fd5b600080fd5b6000601f19601f8301169050919050565b7f4e487b7100000000000000000000000000000000000000000000000000000000600052604160045260246000fd5b6114a88261145f565b810181811067ffffffffffffffff821117156114c7576114c6611470565b5b80604052505050565b60006114da611441565b90506114e6828261149f565b919050565b600067ffffffffffffffff82111561150657611505611470565b5b61150f8261145f565b9050602081019050919050565b82818337600083830152505050565b600061153e611539846114eb565b6114d0565b90508281526020810184848401111561155a5761155961145a565b5b61156584828561151c565b509392505050565b600082601f83011261158257611581611455565b5b813561159284826020860161152b565b91505092915050565b6115a48161140d565b81146115af57600080fd5b50565b6000813590506115c18161159b565b92915050565b600080600080600080600060e0888a0312156115e6576115e561144b565b5b600088013567ffffffffffffffff81111561160457611603611450565b5b6116108a828b0161156d565b97505060206116218a828b016115b2565b965050604088013567ffffffffffffffff81111561164257611641611450565b5b61164e8a828b0161156d565b955050606061165f8a828b016115b2565b945050608088013567ffffffffffffffff8111156116805761167f611450565b5b61168c8a828b0161156d565b93505060a061169d8a828b016115b2565b92505060c088013567ffffffffffffffff8111156116be576116bd611450565b5b6116ca8a828b0161156d565b91505092959891949750929550565b6000602082840312156116ef576116ee61144b565b5b60006116fd848285016115b2565b91505092915050565b600073ffffffffffffffffffffffffffffffffffffffff82169050919050565b600061173182611706565b9050919050565b61174181611726565b82525050565b600060208201905061175c6000830184611738565b92915050565b61176b81611726565b811461177657600080fd5b50565b60008135905061178881611762565b92915050565b6000602082840312156117a4576117a361144b565b5b60006117b284828501611779565b91505092915050565b600081519050919050565b600082825260208201905092915050565b60005b838110156117f55780820151818401526020810190506117da565b60008484015250505050565b600061180c826117bb565b61181681856117c6565b93506118268185602086016117d7565b61182f8161145f565b840191505092915050565b6118438161140d565b82525050565b60008115159050919050565b61185e81611849565b82525050565b60006101208301600083015184820360008601526118828282611801565b9150506020830151611897602086018261183a565b50604083015184820360408601526118af8282611801565b91505060608301516118c4606086018261183a565b50608083015184820360808601526118dc8282611801565b91505060a08301516118f160a086018261183a565b5060c083015161190460c0860182611855565b5060e083015161191760e0860182611855565b506101008301518482036101008601526119318282611801565b9150508091505092915050565b600060208201905081810360008301526119588184611864565b905092915050565b600082825260208201905092915050565b600061197c826117bb565b6119868185611960565b93506119968185602086016117d7565b61199f8161145f565b840191505092915050565b6119b381611849565b82525050565b60006101208201905081810360008301526119d4818c611971565b90506119e3602083018b611417565b81810360408301526119f5818a611971565b9050611a046060830189611417565b8181036080830152611a168188611971565b9050611a2560a0830187611417565b611a3260c08301866119aa565b611a3f60e08301856119aa565b818103610100830152611a528184611971565b90509a9950505050505050505050565b600081519050919050565b600082825260208201905092915050565b6000819050602082019050919050565b6000610120830160008301518482036000860152611aac8282611801565b9150506020830151611ac1602086018261183a565b5060408301518482036040860152611ad98282611801565b9150506060830151611aee606086018261183a565b5060808301518482036080860152611b068282611801565b91505060a0830151611b1b60a086018261183a565b5060c0830151611b2e60c0860182611855565b5060e0830151611b4160e0860182611855565b50610100830151848203610100860152611b5b8282611801565b9150508091505092915050565b6000611b748383611a8e565b905092915050565b6000602082019050919050565b6000611b9482611a62565b611b9e8185611a6d565b935083602082028501611bb085611a7e565b8060005b85811015611bec5784840389528151611bcd8582611b68565b9450611bd883611b7c565b925060208a01995050600181019050611bb4565b50829750879550505050505092915050565b60006020820190508181036000830152611c188184611b89565b905092915050565b7f4170706c69636174696f6e20706572696f6420686173206e6f7420737461727460008201527f6564207965740000000000000000000000000000000000000000000000000000602082015250565b6000611c7c602683611960565b9150611c8782611c20565b604082019050919050565b60006020820190508181036000830152611cab81611c6f565b9050919050565b7f4170706c69636174696f6e20706572696f642068617320656e64656400000000600082015250565b6000611ce8601c83611960565b9150611cf382611cb2565b602082019050919050565b60006020820190508181036000830152611d1781611cdb565b9050919050565b7f596f75206861766520616c7265616479207375626d697474656420616e20617060008201527f706c69636174696f6e2e00000000000000000000000000000000000000000000602082015250565b6000611d7a602a83611960565b9150611d8582611d1e565b604082019050919050565b60006020820190508181036000830152611da981611d6d565b9050919050565b7f50657263656e74616765206d75737420626520383025206f722061626f76652e600082015250565b6000611de6602083611960565b9150611df182611db0565b602082019050919050565b60006020820190508181036000830152611e1581611dd9565b9050919050565b7f506173732d6f75742079656172206d75737420626520323032342e0000000000600082015250565b6000611e52601b83611960565b9150611e5d82611e1c565b602082019050919050565b60006020820190508181036000830152611e8181611e45565b9050919050565b7f5175616c696669636174696f6e206d757374206265204d5363206f72204d434160008201527f2e00000000000000000000000000000000000000000000000000000000000000602082015250565b6000611ee4602183611960565b9150611eef82611e88565b604082019050919050565b60006020820190508181036000830152611f1381611ed7565b9050919050565b7f4e487b7100000000000000000000000000000000000000000000000000000000600052602260045260246000fd5b60006002820490506001821680611f6157607f821691505b602082108103611f7457611f73611f1a565b5b50919050565b60008190508160005260206000209050919050565b60006020601f8301049050919050565b600082821b905092915050565b600060088302611fdc7fffffffffffffffffffffffffffffffffffffffffffffffffffffffffffffffff82611f9f565b611fe68683611f9f565b95508019841693508086168417925050509392505050565b6000819050919050565b600061202361201e6120198461140d565b611ffe565b61140d565b9050919050565b6000819050919050565b61203d83612008565b6120516120498261202a565b848454611fac565b825550505050565b600090565b612066612059565b612071818484612034565b505050565b5b818110156120955761208a60008261205e565b600181019050612077565b5050565b601f8211156120da576120ab81611f7a565b6120b484611f8f565b810160208510156120c3578190505b6120d76120cf85611f8f565b830182612076565b50505b505050565b600082821c905092915050565b60006120fd600019846008026120df565b1980831691505092915050565b600061211683836120ec565b9150826002028217905092915050565b61212f826117bb565b67ffffffffffffffff81111561214857612147611470565b5b6121528254611f49565b61215d828285612099565b600060209050601f831160018114612190576000841561217e578287015190505b612188858261210a565b8655506121f0565b601f19841661219e86611f7a565b60005b828110156121c6578489015182556001820191506020850194506020810190506121a1565b868310156121e357848901516121df601f8916826120ec565b8355505b6001600288020188555050505b505050505050565b600060408201905081810360008301526122128185611971565b90506122216020830184611417565b9392505050565b7f4e487b7100000000000000000000000000000000000000000000000000000000600052603260045260246000fd5b7f4e487b7100000000000000000000000000000000000000000000000000000000600052601160045260246000fd5b60006122918261140d565b91507fffffffffffffffffffffffffffffffffffffffffffffffffffffffffffffffff82036122c3576122c2612257565b5b600182019050919050565b7f556e617574686f72697a65643a204f6e6c792061646d696e2063616e2070657260008201527f666f726d207468697320616374696f6e00000000000000000000000000000000602082015250565b600061232a603083611960565b9150612335826122ce565b604082019050919050565b600060208201905081810360008301526123598161231d565b9050919050565b7f4e6f206170706c69636174696f6e20666f756e6420666f72207468697320617060008201527f706c6963616e742e000000000000000000000000000000000000000000000000602082015250565b60006123bc602883611960565b91506123c782612360565b604082019050919050565b600060208201905081810360008301526123eb816123af565b9050919050565b7f4170706c69636174696f6e20697320616c726561647920617070726f7665642e600082015250565b6000612428602083611960565b9150612433826123f2565b602082019050919050565b600060208201905081810360008301526124578161241b565b9050919050565b7f496e73756666696369656e742066756e647320746f20617070726f766520746860008201527f65206170706c69636174696f6e2e000000000000000000000000000000000000602082015250565b60006124ba602e83611960565b91506124c58261245e565b604082019050919050565b600060208201905081810360008301526124e9816124ad565b9050919050565b600081546124fd81611f49565b6125078186611960565b9450600182166000811461252257600181146125385761256b565b60ff19831686528115156020028601935061256b565b61254185611f7a565b60005b8381101561256357815481890152600182019150602081019050612544565b808801955050505b50505092915050565b6000604082019050818103600083015261258e81856124f0565b905061259d6020830184611417565b939250505056fea2646970667358221220b0ce2e6638f6c18904292d6607028ebec7755c0906d790ea358d8e71254892d464736f6c63430008140033",
  "linkReferences": {},
  "deployedLinkReferences": {}
}